:020000040000FA
:0400000007EF00F016
:0A00080077821CED1EF09EEF29F038
:10060000000000803F000020410000C84200007A46
:100610004400401C460050C347002474498096188B
:100620004B20BCBE4C286B6E4EF9021550EC78ADD9
:1006300060CAF249710000803FCDCCCC3D0AD7237F
:100640003C6F12833A17B7D138ACC52737BD378610
:100650003595BFD63377CC2B325F708930FFE6DB20
:100660002E08E53C1E6042A20D010000000A0000B9
:100670000064000000E803000010270000A08601CD
:100680000040420F008096980000E1F50500CA9AEC
:100690003B56633A2025302E31662056613A20259C
:1006A000302E316600536574706F696E743A202580
:1006B000644300546D703A2025302E326643004169
:1006C00075742E2041713A4F4E004D616E2E2050B0
:1006D0002020004D616E2E205320200050493A20EA
:0B06E0002566200025302E3266000049
:1006EC00630E0001B66F000EB76F1FEF0AF0250EF8
:1006FC00CC19D8B484EF03F086EF03F090EF03F03D
:10070C005FC0D9FF60C0DAFFCCC0DFFF5F4A602A50
:10071C001FEF0AF0000EC56F000EC46F000EC36F02
:10072C00000EC26F9DEF03F0C285614A622A61C060
:10073C00F6FF62C0F7FF0800F550300AD8B49AEF04
:10074C0003F0A9EF03F061C0F6FF62C0F7FF0800E9
:10075C00F550F2EC2AF0D8A0B6EF03F0B8EF03F0A6
:10076C00F1EF03F0000E0001C56F000EC46FC4C0A2
:10077C0006F0C5C007F0000E096E0A0E086E39ECC3
:10078C002BF006C0C4F007C0C5F0D00E6B6EFF0E88
:10079C006C6E61C0F6FF62C0F7FF0800F5506D6E1D
:1007AC006E6A6B506D266C506E226D500001C42722
:1007BC006E50C523614A622A61C0F6FF62C0F7FF22
:1007CC000800F550F2EC2AF0D8B0EFEF03F0F1EF9F
:1007DC0003F0BDEF03F061C0F6FF62C0F7FF080045
:1007EC00F5502E0AD8A4FDEF03F0FFEF03F03FEF16
:1007FC0004F00001C38D614A622A000ECB6F000E1B
:10080C00CA6F2EEF04F0CAC006F0CBC007F0000E82
:10081C00096E0A0E086E39EC2BF006C0CAF007C040
:10082C00CBF0D00E6B6EFF0E6C6E61C0F6FF62C02B
:10083C00F7FF0800F5506D6E6E6A6B506D266C50AC
:10084C006E226D500001CA276E50CB23614A622A7A
:10085C0061C0F6FF62C0F7FF0800F550F2EC2AF019
:10086C00D8B03BEF04F03DEF04F009EF04F04AEF91
:10087C0004F0000E0001CB6F000ECA6FC3894AEF63
:10088C0004F0C38567EF04F061C0F6FF62C0F7FFA8
:10089C00614A622A0800F5CFCCF00001CC51000A65
:1008AC00D8B430EF0AF0640AD8B467EF04F0020A47
:1008BC00D8B447EF04F00F0AD8B467EF04F01FEF79
:1008CC000AF0070EC315D8B46EEF04F070EF04F005
:1008DC0078EF08F0C3A975EF04F077EF04F07BEF25
:1008EC0004F0000ECB6F060ECA6FB6C0D9FFB7C0AE
:1008FC00DAFFDECFC6F0DECFC7F0DECFC8F0DECF3A
:10090C00C9F0040EB627000EB723C9BF92EF04F04E
:10091C0090EF04F0A7EF04F0C6C006F0C7C007F0D4
:10092C00C8C008F0C9C009F0D6EC2AF006C0C6F061
:10093C0007C0C7F008C0C8F009C0C9F0030E000119
:10094C00C213000EC16F000EC06FC6C006F0C7C048
:10095C0007F0C8C008F0C9C009F0000E0A6E000EFE
:10096C000B6E000E0C6E000E0D6E2CEC28F0D8B039
:10097C00C2EF04F0C4EF04F057EF05F00001C835E6
:10098C00C935820FC06FC16BFF0EC123C007D8A041
:10099C00C107C0C006F0C1C007F0000E096E030EFF
:1009AC00086E39EC2BF006C0C0F007C0C1F0C0C017
:1009BC000CF0C1C00DF0000E0F6E0A0E0E6E16EC90
:1009CC0027F00CC0C0F00DC0C1F00001C1BFF3EFA7
:1009DC0004F0F1EF04F0F6EF04F0C007D8A0C10763
:1009EC00C05100082EEC14F03AC0B8F03BC0B9F07E
:1009FC003CC0BAF03DC0BBF0B8C021F0B9C022F089
:100A0C00BAC023F0BBC024F0C6C025F0C7C026F086
:100A1C00C8C027F0C9C028F019EC12F021C0B8F0FA
:100A2C0022C0B9F023C0BAF024C0BBF0B8C021F08A
:100A3C00B9C022F0BAC023F0BBC024F0000E256E62
:100A4C00000E266E800E276E3F0E286E3CEC25F0B5
:100A5C00D8B033EF05F035EF05F03BEF05F00001B2
:100A6C00C007D8A0C10757EF05F0B8C021F0B9C036
:100A7C0022F0BAC023F0BBC024F0000E256E000E8D
:100A8C00266E200E276E410E286E3CEC25F0D8A069
:100A9C0052EF05F054EF05F057EF05F00001C04B95
:100AAC00C12B0001CBBF66EF05F0CB5107E10D0E5A
:100ABC00CA5DD8B064EF05F066EF05F083EF05F082
:100ACC00C6C047F0C7C048F0C8C049F0C9C04AF01A
:100ADC00CA5101EC18F03AC04BF03BC04CF03CC092
:100AEC004DF03DC04EF0B9EC0FF047C0C6F048C019
:100AFC00C7F049C0C8F04AC0C9F00001C1BF92EFAD
:100B0C0005F0C15107E10A0EC05DD8B090EF05F0B9
:100B1C0092EF05F0CFEF05F0C6C006F0C7C007F0A6
:100B2C00C8C008F0C9C009F0000E0A6E000E0B6EAA
:100B3C00000E0C6E000E0D6E2CEC28F0D8B0A9EF48
:100B4C0005F0ABEF05F024EF06F0C6C053F0C7C0BC
:100B5C0054F0C8C055F0C9C056F036EC24F05350D0
:100B6C00541055105610D8A4BEEF05F0C0EF05F088
:100B7C0024EF06F00001C1BFCDEF05F0C15109E132
:100B8C00020EC05DD8A0CDEF05F0CFEF05F024EF3D
:100B9C0006F0B8C021F0B9C022F0BAC023F0BBC037
:100BAC0024F05F0E256E700E266E890E276E400E99
:100BBC00286E3CEC25F0D8B0E6EF05F0E8EF05F038
:100BCC00EFEF05F00001F70EC027FF0EC123F4EF85
:100BDC0005F00001F80EC027FF0EC123C0512EEC0A
:100BEC0014F03AC0B8F03BC0B9F03CC0BAF03DC00C
:100BFC00BBF0C6C006F0C7C007F0C8C008F0C9C03B
:100C0C0009F0B8C00AF0B9C00BF0BAC00CF0BBC008
:100C1C000DF096EC1FF006C0BCF007C0BDF008C08C
:100C2C00BEF009C0BFF0000E0001C66F000EC76F0A
:100C3C00000EC86F000EC96F60EF06F0C6C053F00F
:100C4C00C7C054F0C8C055F0C9C056F036EC24F0FB
:100C5C0053C0BCF054C0BDF055C0BEF056C0BFF080
:100C6C00C6C057F0C7C058F0C8C059F0C9C05AF038
:100C7C00BCC013F0BDC014F0BEC015F0BFC016F060
:100C8C00000E42EC1DF013C05BF014C05CF015C0FC
:100C9C005DF016C05EF0B3EC2AF057C0C6F058C039
:100CAC00C7F059C0C8F05AC0C9F0000E0001C16F9E
:100CBC00000EC06F010ECC6FCC51040D690EF324E5
:100CCC00F66E060EF420F76E0900F550BC5D0900B7
:100CDC00F550BD590900F550BE590900F550BF59E2
:100CEC00D8B07BEF06F07DEF06F07FEF06F089EFD2
:100CFC0006F0CC2B0A0ECC19D8A487EF06F089EF9E
:100D0C0006F062EF06F0CC51CA256B6E000ECB21BB
:100D1C006C6EC0516B26C1516C226B50C45F6C5011
:100D2C00C55BCA51CB11D8B49EEF06F0A0EF06F00C
:100D3C00A3EF06F0C407D8A0C507030EC2156B6E4F
:100D4C00000EC3156C6E6B506C10D8B4B0EF06F07F
:100D5C00B2EF06F0B5EF06F0C407D8A0C507C2A5E0
:100D6C00BAEF06F0BCEF06F0FAEF06F0030EC21570
:100D7C006B6E000EC3156C6E6B506C10D8B4C9EF53
:100D8C0006F0CBEF06F0E0EF06F05FC0D9FF60C0D5
:100D9C00DAFF2D0EDF6E5F4A602AE0EF06F05FC0CF
:100DAC00D9FF60C0DAFF300EDF6E5F4A602AC407DD
:100DBC00D8A0C507C5BFEDEF06F0C55106E1C405C7
:100DCC00D8B0EBEF06F0EDEF06F0D5EF06F06AEFDA
:100DDC0007F05FC0D9FF60C0DAFF200EDF6E5F4AFC
:100DEC00602AC407D8A0C507C5BF07EF07F0C551D7
:100DFC0006E1C405D8B005EF07F007EF07F0EFEFF9
:100E0C0006F0030EC2156B6E000EC3156C6E6B50A4
:100E1C006C10D8B414EF07F016EF07F06AEF07F078
:100E2C005FC0D9FF60C0DAFF2D0EDF6E5F4A602A0B
:100E3C006AEF07F0BCC012F0BDC013F0BEC014F0D6
:100E4C00BFC015F0CC51040D690EF324F66E060EDE
:100E5C00F420F76E0900F5CF16F00900F5CF17F066
:100E6C000900F5CF18F00A00F5CF19F081EC28F045
:100E7C0012C0B8F013C0B9F014C0BAF015C0BBF072
:100E8C00B8C01FF0B9C020F0BAC021F0BBC022F02E
:100E9C000A0E236E000E246E000E256E000E266EBA
:100EAC001CEC29F01FC0B8F020C0B9F021C0BAF07A
:100EBC0022C0BBF00001B851300F5FC0D9FF60C039
:100ECC00DAFFDF6E1CEF07F0CC07CC29D8A471EF4A
:100EDC0007F073EF07F020EF07F080EF07F05FC02B
:100EEC00D9FF60C0DAFF300EDF6E5F4A602AC007A0
:100EFC00D8A0C107C1BF8DEF07F0C15106E1C005F5
:100F0C00D8B08BEF07F08DEF07F075EF07F0CBBF84
:100F1C0099EF07F0CB5109E1090ECA5DD8A099EF02
:100F2C0007F09BEF07F09FEF07F0080ECC6FA1EFD7
:100F3C0007F0CAC0CCF0CC51CA5F000ECB5BCC51D1
:100F4C00D8B4ABEF07F0ADEF07F0B5EF07F05FC02B
:100F5C00D9FF60C0DAFF2E0EDF6E5F4A602ACC51DB
:100F6C002EEC14F03AC0B2F03BC0B3F03CC0B4F07D
:100F7C003DC0B5F0C6C025F0C7C026F0C8C027F0EC
:100F8C00C9C028F0B2C021F0B3C022F0B4C023F025
:100F9C00B5C024F019EC12F021C053F022C054F06B
:100FAC0023C055F024C056F036EC24F053C0BCF0EE
:100FBC0054C0BDF055C0BEF056C0BFF056EF08F09F
:100FCC00BCC012F0BDC013F0BEC014F0BFC015F011
:100FDC00CC51040D690EF324F66E060EF420F76E58
:100FEC000900F5CF16F00900F5CF17F00900F5CF81
:100FFC0018F00A00F5CF19F081EC28F012C0B8F007
:10100C0013C0B9F014C0BAF015C0BBF0B8C01FF0D3
:10101C00B9C020F0BAC021F0BBC022F00A0E236E7A
:10102C00000E246E000E256E000E266E1CEC29F0B0
:10103C001FC0B8F020C0B9F021C0BAF022C0BBF07C
:10104C000001B851300F5FC0D9FF60C0DAFFDF6E0E
:10105C005F4A602ABCC01FF0BDC020F0BEC021F0AA
:10106C00BFC022F0CC51040D690EF324F66E060EAF
:10107C00F420F76E0900F5CF23F00900F5CF24F02A
:10108C000900F5CF25F00A00F5CF26F01CEC29F06D
:10109C001FC0BCF020C0BDF021C0BEF022C0BFF00C
:1010AC000001CC07CC29D8A45EEF08F060EF08F063
:1010BC00E6EF07F06DEF08F05FC0D9FF60C0DAFF14
:1010CC00300EDF6E5F4A602ACA07D8A0CB07CA5120
:1010DC00CB11D8A474EF08F076EF08F062EF08F0AB
:1010EC001FEF0AF0B6C0D9FFB7C0DAFFDECFBCF0F5
:1010FC00DDCFBDF0000EBDBFFF0EBE6FBF6F020E89
:10110C00B627000EB723BFBF90EF08F08EEF08F0A4
:10111C009AEF08F0030EC213BF1FBE1FBD1FBC6D9C
:10112C00000EBD23BE23BF23CA51CB11D8A4A1EFFF
:10113C0008F0A3EF08F0B0EF08F0BC51BD11BE11E0
:10114C00BF11D8A4ACEF08F0AEEF08F0B0EF08F088
:10115C00CA4BCB2B010ECC6FCC51040D690EF32472
:10116C00F66E060EF420F76E0900F550BC5D090012
:10117C00F550BD590900F550BE590900F550BF593D
:10118C00D8B0CBEF08F0CDEF08F0CFEF08F0D9EFE7
:10119C0008F0CC2B0A0ECC19D8A4D7EF08F0D9EF55
:1011AC0008F0B2EF08F0CC516B6E6C6ACA516B5CF4
:1011BC006C50800A6D6ECB51800A6D58D8B0E9EF37
:1011CC0008F0EBEF08F0EFEF08F0CAC0CCF004EF3A
:1011DC0009F0CC516B6E6C6A6B50CA5DCB51800AB6
:1011EC006D6E6C50800A6D58D8B0FFEF08F001EFAF
:1011FC0009F004EF09F0CCC0CAF0CB6BC451C51197
:10120C00D8B40BEF09F00DEF09F01FEF09F0030E46
:10121C00C2156B6E000EC3156C6E6B506C10D8B48F
:10122C001AEF09F01CEF09F01FEF09F0C407D8A062
:10123C00C507C3AD24EF09F026EF09F03FEF09F025
:10124C00C451CA5DCB51800A6B6EC551800A6B5874
:10125C00D8B033EF09F035EF09F03BEF09F0CA5184
:10126C00C45FCB51C55B3FEF09F0000EC56F000E9C
:10127C00C46FCC516B6E6C6AC4516B5C6C50800A41
:10128C006D6EC551800A6D58D8B04FEF09F051EF13
:10129C0009F057EF09F0CC51C45F000EC55B5BEF52
:1012AC0009F0000EC56F000EC46FC2A560EF09F007
:1012BC0062EF09F098EF09F0030EC2156B6E000E89
:1012CC00C3156C6E6B506C10D8B46FEF09F071EFE6
:1012DC0009F079EF09F05FC0D9FF60C0DAFF2D0E7D
:1012EC00DF6E5F4A602AC451C511D8B480EF09F093
:1012FC0082EF09F012EF0AF05FC0D9FF60C0DAFF8D
:10130C00300EDF6E5F4A602AC407D8A0C507C451EF
:10131C00C511D8A494EF09F096EF09F082EF09F00B
:10132C0012EF0AF0C451C511D8B49FEF09F0A1EF28
:10133C0009F0B5EF09F05FC0D9FF60C0DAFF200EED
:10134C00DF6E5F4A602AC407D8A0C507C451C51117
:10135C00D8A4B3EF09F0B5EF09F0A1EF09F0030E33
:10136C00C2156B6E000EC3156C6E6B506C10D8B43E
:10137C00C2EF09F0C4EF09F012EF0AF05FC0D9FF19
:10138C0060C0DAFF2D0EDF6E5F4A602A12EF0AF0A2
:10139C00CAC06BF0CBC06CF0D8906B366C36D89062
:1013AC006B366C36690E6B24F66E060E6C20F76E7F
:1013BC000900F5CF16F00900F5CF17F00900F5CFAD
:1013CC0018F00A00F5CF19F0BCC012F0BDC013F034
:1013DC00BEC014F0BFC015F081EC28F012C01FF095
:1013EC0013C020F014C021F015C022F00A0E236E99
:1013FC00000E246E000E256E000E266E1CEC29F0DD
:10140C001F50300F0001CC6F5FC0D9FF60C0DAFFF6
:10141C00CCC0DFFFCAEF09F0CA07D8A0CB07CA2996
:10142C0006E1CB29D8A41DEF0AF01FEF0AF0CEEF8E
:10143C0009F061C0F6FF62C0F7FF614A622A08003A
:10144C00F5CFCCF0CC51D8A42EEF0AF030EF0AF047
:10145C007DEF03F05FC0D9FF60C0DAFF000EDF6ED6
:10146C001200000EF26E000EF16EF19E92680F0EDD
:10147C00936E000E946E0F0E956E000E966E000E0F
:10148C00806E000E896E000E816E000E8A6E000E4C
:10149C00826E000E8B6E000E836E000E8C6E000E34
:1014AC00846E000E8D6EF19CF292F288F086F090B4
:1014BC00F088F09264EC2BF028EC23F00C0ED6ECB8
:1014CC0020F0030E156EE80E146EBEEC25F023EC26
:1014DC002BF015EC2AF05EEC2BF004007250D8B413
:1014EC007AEF0AF07CEF0AF043EF0BF0AFEC26F04A
:1014FC0002017D51D8A485EF0AF087EF0AF08EEF38
:10150C000AF0000E0001AB6F010EAA6F93EF0AF008
:10151C00000E0001AB6F000EAA6F02017E51D8B411
:10152C009AEF0AF09CEF0AF043EF0BF0000E3E6EC0
:10153C00000E3F6EC80E406E420E416E8BC113F012
:10154C008CC114F0156A166A000E42EC1DF013C023
:10155C003AF014C03BF015C03CF016C03DF034EC32
:10156C0016F03AC053F03BC054F03CC055F03DC0AF
:10157C0056F036EC24F053C0D9F054C0DAF0000E1B
:10158C003E6E000E3F6EC80E406E420E416E8DC117
:10159C0013F08EC114F0156A166A000E42EC1DF0A1
:1015AC0013C03AF014C03BF015C03CF016C03DF02F
:1015BC0034EC16F03AC053F03BC054F03CC055F03C
:1015CC003DC056F036EC24F053C0A8F054C0A9F03E
:1015DC00000E3E6E000E3F6EC80E406E420E416E07
:1015EC008FC113F090C114F0156A166A000E42EC0C
:1015FC001DF013C03AF014C03BF015C03CF016C0FF
:10160C003DF034EC16F03AC053F03BC054F03CC003
:10161C0055F03DC056F036EC24F053C0D7F054C012
:10162C00D8F0000E3E6E000E3F6E200E406E410E46
:10163C00416E91C113F092C114F0156A166A000E36
:10164C0042EC1DF013C03AF014C03BF015C03CF056
:10165C0016C03DF034EC16F03AC053F03BC054F0D9
:10166C003CC055F03DC056F036EC24F053C0D5F0DC
:10167C0054C0D6F0000E02017E6F81B648EF0BF01D
:10168C004AEF0BF058EF0BF00001DB51DC11D8B432
:10169C0052EF0BF055EF0BF0010E56EF0BF0000E66
:1016AC00DB6FDC6B020E60EC29F0D8900730706EAB
:1016BC0006306F6E6FC013F070C014F0156A166AA6
:1016CC00000E42EC1DF013C0A0F014C0A1F015C028
:1016DC00A2F016C0A3F00001AA51AB11D8A479EF67
:1016EC000BF07BEF0BF031EF0DF0DB51DC11D8A4DC
:1016FC0082EF0BF084EF0BF055EF0CF0000E60EC6A
:10170C0029F006C0ACF007C0ADF0030E0F6E0E68EA
:10171C00ACC006F0ADC007F0000E096E050E086EE9
:10172C0039EC2BF006C00CF007C00DF0DBEC29F007
:10173C000CC013F00DC014F0156A166A000E42ECC2
:10174C001DF013C0AEF014C0AFF015C0B0F016C051
:10175C00B1F0AEC090F0AFC091F0B0C092F0B1C09B
:10176C0093F0000E256E000E266E7F0E276E430E34
:10177C00286EAEC021F0AFC022F0B0C023F0B1C0D3
:10178C0024F019EC12F021C03AF022C03BF023C037
:10179C003CF024C03DF0000E3E6E000E3F6EA00EDD
:1017AC00406E400E416E34EC16F03AC09CF03BC0DB
:1017BC009DF03CC09EF03DC09FF0010E60EC29F006
:1017CC0006C0ACF007C0ADF0000E256E000E266E04
:1017DC00A00E276E400E286EACC013F0ADC014F0F6
:1017EC00156A166A000E42EC1DF013C021F014C0ED
:1017FC0022F015C023F016C024F019EC12F021C011
:10180C003AF022C03BF023C03CF024C03DF0000E67
:10181C003E6EC00E3F6E7F0E406E440E416E34EC39
:10182C0016F03AC0AEF03BC0AFF03CC0B0F03DC0DB
:10183C00B1F0AEC094F0AFC095F0B0C096F0B1C0AE
:10184C0097F0000E256E000E266E200E276E410EB0
:10185C00286EAEC021F0AFC022F0B0C023F0B1C0F2
:10186C0024F019EC12F021C03AF022C03BF023C056
:10187C003CF024C03DF0000E3E6E000E3F6EA00EFC
:10188C00406E400E416E34EC16F03AC098F03BC0FE
:10189C0099F03CC09AF03DC09BF0CFEF0CF087C1A3
:1018AC0013F088C114F0156A166A000E42EC1DF094
:1018BC0013C09CF014C09DF015C09EF016C09FF094
:1018CC00000E256E000E266EA00E276E400E286EA2
:1018DC009CC021F09DC022F09EC023F09FC024F03C
:1018EC0019EC12F021C03AF022C03BF023C03CF0BE
:1018FC0024C03DF0000E3E6E000E3F6E7F0E406E1B
:10190C00430E416E34EC16F03AC090F03BC091F0AF
:10191C003CC092F03DC093F089C113F08AC114F021
:10192C00156A166A000E42EC1DF013C098F014C034
:10193C0099F015C09AF016C09BF0000E256E000EA3
:10194C00266EA00E276E400E286E98C021F099C00E
:10195C0022F09AC023F09BC024F019EC12F021C0A5
:10196C003AF022C03BF023C03CF024C03DF0000E06
:10197C003E6E000E3F6E200E406E410E416E34ECFA
:10198C0016F03AC094F03BC095F03CC096F03DC0C8
:10199C0097F09CC053F09DC054F09EC055F09FC072
:1019AC0056F036EC24F05350D3EC28F00001A64B43
:1019BC00A72BA6C013F0A7C014F0000E14BEFF0E88
:1019CC00156E166E010E42EC1DF013C021F014C002
:1019DC0022F015C023F016C024F098C025F099C051
:1019EC0026F09AC027F09BC028F03CEC25F0D8A03C
:1019FC0002EF0DF004EF0DF005EF0DF0829A0A0ED8
:101A0C000001A619A711D8A40EEF0DF010EF0DF0E0
:101A1C00C3EF0EF098C006F099C007F09AC008F01A
:101A2C009BC009F0000E0A6E000E0B6E000E0C6EC1
:101A3C00000E0D6E2CEC28F0D8B027EF0DF029EF2E
:101A4C000DF02AEF0DF0828A000E0001A76F000E38
:101A5C00A66FC3EF0EF0828AA0C057F0A1C058F059
:101A6C00A2C059F0A3C05AF0D5C013F0D6C014F0E0
:101A7C00000E14BEFF0E156E166E010E42EC1DF01C
:101A8C0013C05BF014C05CF015C05DF016C05EF0C6
:101A9C00B3EC2AF057C080F058C081F059C082F0E6
:101AAC005AC083F08CC025F08DC026F08EC027F074
:101ABC008FC028F0D7C013F0D8C014F0000E14BE9D
:101ACC00FF0E156E166E010E42EC1DF013C021F0C8
:101ADC0014C022F015C023F016C024F019EC12F03B
:101AEC0021C04BF022C04CF023C04DF024C04EF06E
:101AFC0080C025F081C026F082C027F083C028F07A
:101B0C00D9C013F0DAC014F0000E14BEFF0E156E1F
:101B1C00166E010E42EC1DF013C021F014C022F021
:101B2C0015C023F016C024F019EC12F021C047F0B8
:101B3C0022C048F023C049F024C04AF0B9EC0FF0A1
:101B4C0047C0CDF048C0CEF049C0CFF04AC0D0F06D
:101B5C0088C05BF089C05CF08AC05DF08BC05EF021
:101B6C0080C057F081C058F082C059F083C05AF041
:101B7C00B3EC2AF057C025F058C026F059C027F016
:101B8C005AC028F0A8C013F0A9C014F0000E14BE5F
:101B9C00FF0E156E166E010E42EC1DF013C021F0F7
:101BAC0014C022F015C023F016C024F019EC12F06A
:101BBC0021C0D1F022C0D2F023C0D3F024C0D4F085
:101BCC00CDC047F0CEC048F0CFC049F0D0C04AF0ED
:101BDC00D1C04BF0D2C04CF0D3C04DF0D4C04EF0BD
:101BEC00B9EC0FF047C084F048C085F049C086F0CE
:101BFC004AC087F08CC047F08DC048F08EC049F0C9
:101C0C008FC04AF080C04BF081C04CF082C04DF0C8
:101C1C0083C04EF0B9EC0FF047C08CF048C08DF08B
:101C2C0049C08EF04AC08FF080C088F081C089F026
:101C3C0082C08AF083C08BF0000E216E000E226EE3
:101C4C007F0E236E430E246E84C025F085C026F0D3
:101C5C0086C027F087C028F03CEC25F0D8B039EFCF
:101C6C000EF03BEF0EF044EF0EF0000E0001846F0F
:101C7C00000E856F7F0E866F430E876F84C021F038
:101C8C0085C022F086C023F087C024F0000E256E9C
:101C9C00000E266E200E276E410E286E3CEC25F0B1
:101CAC00D8B05BEF0EF05DEF0EF066EF0EF0000EAD
:101CBC000001846F000E856F200E866F410E876FBA
:101CCC00000E256E000E266EA00E276E400E286E9E
:101CDC0084C021F085C022F086C023F087C024F098
:101CEC0019EC12F021C03AF022C03BF023C03CF0BA
:101CFC0024C03DF0000E3E6E000E3F6E7F0E406E17
:101D0C00430E416E34EC16F03AC090F03BC091F0AB
:101D1C003CC092F03DC093F0000E0001946F000E99
:101D2C00956FA00E966F400E976F84C053F085C0D0
:101D3C0054F086C055F087C056F036EC24F0535062
:101D4C00D3EC28F0000E5F6E030E606EDC0E616E3D
:101D5C00060E626E84C063F085C064F086C065F0C8
:101D6C0087C066F076EC03F0FC0E096E000E0A6E6E
:101D7C00030E0B6E030E78EC27F0000E5F6E030E55
:101D8C00606EB30E616E060E626EA0C063F0A1C0F1
:101D9C0064F0A2C065F0A3C066F076EC03F0000E10
:101DAC00096E000E0A6E030E0B6E010E78EC27F016
:101DBC000001AA51AB11D8A4E6EF0EF0E8EF0EF03B
:101DCC0035EF0FF0DB51DC11D8A4EFEF0EF0F1EF93
:101DDC000EF0FDEF0EF0AF0E5F6E020E606ECA0ECF
:101DEC00616E060E626E76EC03F007EF0FF0AF0E2D
:101DFC005F6E020E606ED30E616E060E626E76EC36
:101E0C0003F0000E096EAF0E0A6E020E0B6E020E80
:101E1C0078EC27F0AF0E5F6E020E606E910E616E65
:101E2C00060E626E90C063F091C064F092C065F0D3
:101E3C0093C066F094C067F095C068F096C069F0E6
:101E4C0097C06AF076EC03F0FC0E096EAF0E0A6ECA
:101E5C00020E0B6E030E78EC27F063EF0FF0000E02
:101E6C00096EBF0E0A6E060E0B6E020E78EC27F092
:101E7C00AF0E5F6E020E606EE40E616E060E626E49
:101E8C00D9C063F0DAC064F076EC03F0AF0E5F6E8D
:101E9C00020E606EA50E616E060E626E81C163F05D
:101EAC0082C164F076EC03F0FC0E096EAF0E0A6E84
:101EBC00020E0B6E040E78EC27F0A0C053F0A1C0FC
:101ECC0054F0A2C055F0A3C056F036EC24F053C029
:101EDC007FF154C080F1D5C081F1D6C082F1000EE3
:101EEC00256E000E266E200E276E410E286E90C0B9
:101EFC0021F091C022F092C023F093C024F019EC91
:101F0C0012F021C053F022C054F023C055F024C06D
:101F1C0056F036EC24F053C083F154C084F1000E1B
:101F2C00256E000E266E200E276E410E286E94C074
:101F3C0021F095C022F096C023F097C024F019EC44
:101F4C0012F021C053F022C054F023C055F024C02D
:101F5C0056F036EC24F053C085F154C086F173EF83
:101F6C000AF007EF00F04A50800B536E4A504A2497
:101F7C00556E49AEC4EF0FF0C6EF0FF0C7EF0FF080
:101F8C0055805550D8B4CDEF0FF0CFEF0FF0E4EFF4
:101F9C000FF05528D8A4D5EF0FF0D7EF0FF0DFEFE7
:101FAC000FF0000E476E000E486E000E496E000ECC
:101FBC004A6E498E000E4A6EECEF0FF0000E476E23
:101FCC00000E486E000E496E000E4A6E4E50800B8D
:101FDC00546E53505418D8B4F6EF0FF0F8EF0FF0CE
:101FEC00F9EF0FF0538C4E504E24546E4DAE01EF62
:101FFC0010F003EF10F004EF10F054805450D8B4EC
:10200C000AEF10F00CEF10F021EF10F05428D8A4C8
:10201C0012EF10F014EF10F01CEF10F0000E4B6EDE
:10202C00000E4C6E000E4D6E000E4E6E4D8E000E60
:10203C004E6E29EF10F0000E4B6E000E4C6E000E23
:10204C004D6E000E4E6E5550545CD8B030EF10F003
:10205C0032EF10F059EF10F053AC37EF10F039EFBE
:10206C0010F03BEF10F0800E531A55C056F054C0D0
:10207C0055F056C054F047C056F04BC047F056C010
:10208C004BF048C056F04CC048F056C04CF049C01C
:10209C0056F04DC049F056C04DF04AC056F04EC0F7
:1020AC004AF056C04EF0000E566E555054C04FF0CC
:1020BC00506A4F5E000E505A50BE6EEF10F05050EA
:1020CC0009E11A0E4F5CD8A06EEF10F070EF10F013
:1020DC00A7EF10F04750481049104A10D8A479EFD8
:1020EC0010F07CEF10F0010E7DEF10F0000E566E2C
:1020FC00000E476E000E486E000E496E000E4A6EC2
:10210C0054C055F0B0EF10F056A08FEF10F091EFD7
:10211C0010F097EF10F0D89056300109566E99EFE9
:10212C0010F0D890563247A09EEF10F0A0EF10F0B0
:10213C00A1EF10F0568E4A344A32493248324732B7
:10214C00552A5450555CD8A0AEEF10F0B0EF10F0FB
:10215C008AEF10F053BCB5EF10F0B7EF10F0F7EFBB
:10216C0010F05550D8A4BDEF10F0BFEF10F0C9EF30
:10217C0010F0000E476E000E486E000E496E000EF9
:10218C004A6E18EF12F04B5047264C5048224D50D7
:10219C0049224E504A224AA0D6EF10F0D8EF10F048
:1021AC0084EF11F056A0DDEF10F0DFEF10F0E5EF4B
:1021BC0010F0D89056300109566EE7EF10F0D89019
:1021CC00563247A0ECEF10F0EEEF10F0EFEF10F0FE
:1021DC00568E4A344A32493248324732552A84EFB5
:1021EC0011F04B50475C4C5048584D5049584A5090
:1021FC00800A4F6E4E50800A4F58D8B008EF11F03D
:10220C000AEF11F035EF11F047504B5C4F6E485010
:10221C004C58506E49504D58516E4A504E58526E53
:10222C00FF0E4F24476EFF0E5020486EFF0E5120BC
:10223C00496EFF0E52204A6E800E531A566C565041
:10224C00D8A42BEF11F02DEF11F03DEF11F0010E92
:10225C004726000E482249224A223DEF11F04B50EE
:10226C00475E4C50485A4D50495A4E504A5A475066
:10227C00481049104A10D8A446EF11F048EF11F05D
:10228C007DEF11F05650D8A44EEF11F050EF11F035
:10229C007DEF11F0000E476E000E486E000E496E79
:1022AC00000E4A6E18EF12F0D89047364836493671
:1022BC004A3656AE64EF11F066EF11F067EF11F08D
:1022CC00478056A06CEF11F06EEF11F072EF11F029
:1022DC00D880563674EF11F0D89056365550D8B485
:1022EC007AEF11F07CEF11F07DEF11F0550649AE4D
:1022FC0082EF11F084EF11F05AEF11F0000E546ED2
:10230C0056AE8BEF11F08DEF11F0A5EF11F056C01A
:10231C004FF07F0E4F16D8B496EF11F098EF11F0E6
:10232C009CEF11F0010E546EA5EF11F047A0A1EF38
:10233C0011F0A3EF11F0A5EF11F098EF11F054503C
:10234C00D8B4ABEF11F0ADEF11F0D8EF11F0010EE6
:10235C004726000E482249224A224AA0B8EF11F023
:10236C00BAEF11F0D8EF11F047C04FF048C050F061
:10237C0049C051F04AC052F05234523251325032AC
:10238C004F324FC047F050C048F051C049F052C0D6
:10239C004AF05528D8B4D5EF11F0D7EF11F0D8EF9B
:1023AC0011F0552A5528D8B4DEEF11F0E0EF11F0FA
:1023BC00E8EF11F05550D8A4E6EF11F0E8EF11F06A
:1023CC00FAEF11F0000E476E000E486E000E496ECB
:1023DC00000E4A6E5550D8A4F6EF11F0F8EF11F03C
:1023EC00FAEF11F0000E536E55A0FFEF11F001EF54
:1023FC0012F004EF12F0498E05EF12F0499ED890BE
:10240C0055304A6E53AE0DEF12F00FEF12F010EF85
:10241C0012F04A8E47C047F048C048F049C049F016
:10242C004AC04AF012002450800B2D6E24502424F4
:10243C00336E23AE24EF12F026EF12F027EF12F0DA
:10244C0033803350D8B42DEF12F02FEF12F042EF4F
:10245C0012F03328D8A435EF12F037EF12F03FEF1B
:10246C0012F0000E216E000E226E000E236E000E76
:10247C00246E238E4AEF12F0000E216E000E226E97
:10248C00000E236E000E246E2850800B2D1A28503F
:10249C0028242E6E27AE55EF12F057EF12F058EF9E
:1024AC0012F02E802E50D8B45EEF12F060EF12F0C6
:1024BC0073EF12F02E28D8A466EF12F068EF12F02A
:1024CC0070EF12F0000E256E000E266E000E276EB9
:1024DC00000E286E278E7BEF12F0000E256E000E7C
:1024EC00266E000E276E000E286E2E50D8B481EF8B
:1024FC0012F083EF12F08BEF12F03350D8A489EF67
:10250C0012F08BEF12F095EF12F0000E216E000E10
:10251C00226E000E236E000E246E2DEF14F0275049
:10252C002102F3CF38F0F4CF39F038502F6E306AE7
:10253C00316A326A3950346E356A366A376A2650D7
:10254C002202F3CF38F0F4CF39F038502F26000E9A
:10255C0030223122322239503426000E35223622D6
:10256C00372225502302F3CF38F0F4CF39F038500E
:10257C002F26000E30223122322239503426000E02
:10258C0035223622372231C032F030C031F02FC024
:10259C0030F02F6A25502202F3CF38F0F4CF39F007
:1025AC0038502F2639503022000E3122000E3222A4
:1025BC0026502102F3CF38F0F4CF39F038502F26C3
:1025CC0039503022000E3122000E322231C032F04E
:1025DC0030C031F02FC030F02F6A25502102F3CFDC
:1025EC0038F0F4CF39F038502F2639503022000E05
:1025FC003122000E322227502202F3CF38F0F4CFD2
:10260C0039F03850342639503522000E3622000E5F
:10261C00372226502302F3CF38F0F4CF39F038505C
:10262C00342639503522000E3622000E3722275020
:10263C002302F3CF38F0F4CF39F03850296E3950EB
:10264C002A6E2B6A2C6A2BC02CF02AC02BF029C0C6
:10265C002AF0296A295034262A5035222B5036224A
:10266C002C5037222FC029F030C02AF031C02BF06B
:10267C0032C02CF0190E48EF13F0D8902C322B32BC
:10268C002A322932E82E43EF13F0295034262A50EF
:10269C0035222B5036222C50372231C032F030C02C
:1026AC0031F02FC030F02F6A2E5033C029F02A6A37
:1026BC002926000E2A22820E2924386EFF0E2A208B
:1026CC00396E7EEF13F0D8903436353636363736D1
:1026DC0032AE73EF13F075EF13F076EF13F0348026
:1026EC00D8902F363036313632363806D8A03906E7
:1026FC0036AE83EF13F085EF13F069EF13F0000E95
:10270C002E6E32AE8CEF13F08EEF13F0B2EF13F09F
:10271C00FF0E2F14296EFF0E30142A6EFF0E31148B
:10272C002B6E7F0E32142C6E29502A102B102C106D
:10273C00D8B4A3EF13F0A5EF13F0A9EF13F0010E2B
:10274C002E6EB2EF13F034A0AEEF13F0B0EF13F027
:10275C00B2EF13F0A5EF13F02E50D8B4B8EF13F07E
:10276C00BAEF13F0DEEF13F0010E3426000E352213
:10277C003622372237A0C5EF13F0C7EF13F0DEEF88
:10278C0013F034C029F035C02AF036C02BF037C016
:10279C002CF02C342C322B322A32293229C034F032
:1027AC002AC035F02BC036F02CC037F0384A392A05
:1027BC0039BEE9EF13F0395008E13828D8A0E9EF19
:1027CC0013F0EBEF13F0F5EF13F0000E346E000E78
:1027DC00356E800E366E7F0E376E23EF14F039BED9
:1027EC0002EF14F0395006E13804D8B000EF14F0C1
:1027FC0002EF14F00EEF14F0000E346E000E356E76
:10280C00000E366E000E376E000E2D6E23EF14F098
:10281C0038C033F0FF0E3416FF0E35167F0E361609
:10282C00000E371633A01DEF14F01FEF14F020EF3D
:10283C0014F0368ED8903330376E2D50371234C09A
:10284C0021F035C022F036C023F037C024F012003E
:10285C00426E42BE36EF14F034EF14F036EF15F042
:10286C00426C4250800A120FD8A03FEF14F041EF97
:10287C0014F0CAEF14F0000E0F6E0A0E0E6E000E5E
:10288C00096E640E086E4250066E076A06BE070695
:10289C00D4EC27F006C00CF007C00DF016EC27F0B6
:1028AC00090E0C260C50040D350EF324F66E060E94
:1028BC00F420F76E0900F5CF25F00900F5CF26F0CE
:1028CC000900F5CF27F00A00F5CF28F0000E0F6EA7
:1028DC00640E0E6E42500C6E0D6A0CBE0D0616EC9C
:1028EC0027F0120E0C260C50040D350EF324F66E48
:1028FC00060EF420F76E0900F5CF21F00900F5CF94
:10290C0022F00900F5CF23F00A00F5CF24F019ECE2
:10291C0012F021C03EF022C03FF023C040F024C092
:10292C0041F03EC021F03FC022F040C023F041C036
:10293C0024F0000E096E0A0E086E4250066E076AED
:10294C0006BE0706D4EC27F00650040D350EF32412
:10295C00F66E060EF420F76E0900F5CF25F009008F
:10296C00F5CF26F00900F5CF27F00A00F5CF28F0B7
:10297C0019EC12F021C03AF022C03BF023C03CF01D
:10298C0024C03DF033EF16F04250800A750FD8A0EA
:10299C00D2EF14F0D4EF14F020EF15F0000E0F6E00
:1029AC000A0E0E6E42500C6E0D6A0CBE0D0616EC25
:1029BC0027F0090E0C260C50040D350EF324F66E80
:1029CC00060EF420F76E0900F5CF21F00900F5CFC3
:1029DC0022F00900F5CF23F00A00F5CF24F0000E09
:1029EC00096E0A0E086E4250066E076A06BE07068E
:1029FC00D4EC27F00650040D350EF324F66E060EBB
:102A0C00F420F76E0900F5CF25F00900F5CF26F07C
:102A1C000900F5CF27F00A00F5CF28F019EC12F0D9
:102A2C0021C03AF022C03BF023C03CF024C03DF062
:102A3C0033EF16F04250040D350EF324F66E060EED
:102A4C00F420F76E0900F5CF3AF00900F5CF3BF012
:102A5C000900F5CF3CF00A00F5CF3DF033EF16F04E
:102A6C004250800A120FD8A03EEF15F040EF15F03F
:102A7C00C9EF15F0000E0F6E0A0E0E6E000E096EE9
:102A8C00640E086E4250066E076A06BE0706D4EC4A
:102A9C0027F006C00CF007C00DF016EC27F0090E5D
:102AAC000C260C50040D010EF324F66E060EF420C9
:102ABC00F76E0900F5CF25F00900F5CF26F00900D7
:102ACC00F5CF27F00A00F5CF28F0000E0F6E640E3C
:102ADC000E6E42500C6E0D6A0CBE0D0616EC27F0F5
:102AEC00120E0C260C50040D010EF324F66E060E7D
:102AFC00F420F76E0900F5CF21F00900F5CF22F094
:102B0C000900F5CF23F00A00F5CF24F019EC12F0F0
:102B1C0021C03EF022C03FF023C040F024C041F061
:102B2C003EC021F03FC022F040C023F041C024F051
:102B3C00000E096E0A0E086E4250066E076A06BE3B
:102B4C000706D4EC27F00650040D010EF324F66EA4
:102B5C00060EF420F76E0900F5CF25F00900F5CF2D
:102B6C0026F00900F5CF27F00A00F5CF28F019EC74
:102B7C0012F021C03AF022C03BF023C03CF024C03C
:102B8C003DF033EF16F04250800A750FD8A0D1EF0C
:102B9C0015F0D3EF15F01FEF16F0000E0F6E0A0EA6
:102BAC000E6E42500C6E0D6A0CBE0D0616EC27F024
:102BBC00090E0C260C50040D010EF324F66E060EB5
:102BCC00F420F76E0900F5CF21F00900F5CF22F0C3
:102BDC000900F5CF23F00A00F5CF24F0000E096EA2
:102BEC000A0E086E4250066E076A06BE0706D4EC43
:102BFC0027F00650040D010EF324F66E060EF42099
:102C0C00F76E0900F5CF25F00900F5CF26F0090085
:102C1C00F5CF27F00A00F5CF28F019EC12F021C0FF
:102C2C003AF022C03BF023C03CF024C03DF033EF1F
:102C3C0016F04250040D010EF324F66E060EF4202D
:102C4C00F76E0900F5CF3AF00900F5CF3BF009001B
:102C5C00F5CF3CF00A00F5CF3DF012003D50800B53
:102C6C004A6E3D503D24516E3CAE3FEF16F041EFA5
:102C7C0016F042EF16F051805150D8B448EF16F0D0
:102C8C004AEF16F05FEF16F05128D8A450EF16F06B
:102C9C0052EF16F05AEF16F0000E3A6E000E3B6E25
:102CAC00000E3C6E000E3D6E3C8E000E3D6E67EFCE
:102CBC0016F0000E3A6E000E3B6E000E3C6E000ECF
:102CCC003D6E4150800B4A1A41504124526E40AE29
:102CDC0072EF16F074EF16F075EF16F0528052503A
:102CEC00D8B47BEF16F07DEF16F092EF16F0522869
:102CFC00D8A483EF16F085EF16F08DEF16F0000ECA
:102D0C003E6E000E3F6E000E406E000E416E408E09
:102D1C00000E416E9AEF16F0000E3E6E000E3F6EE6
:102D2C00000E406E000E416E3E503F1040104110A0
:102D3C00D8A4A3EF16F0A5EF16F0BDEF16F0000E19
:102D4C003A6E000E3B6E000E3C6E000E3D6E800E19
:102D5C003C127F0E3D124A503D123AC03AF03BC035
:102D6C003BF03CC03CF03DC03DF000EF18F0515042
:102D7C00D8A4C3EF16F0C5EF16F0CFEF16F0000E87
:102D8C003A6E000E3B6E000E3C6E000E3D6E00EF78
:102D9C0018F0525051C042F0436A425E000E435A42
:102DAC007F0E42244B6E000E43204C6E3AC046F010
:102DBC003BC047F03CC048F03DC049F0000E3A6EB5
:102DCC00000E3B6E000E3C6E000E3D6E000E4D6E06
:102DDC00000E4E6E000E4F6E000E506E000E526EB8
:102DEC0030EF17F05250D8B4FEEF16F000EF17F09A
:102DFC0017EF17F0D8904636473648364936D890F4
:102E0C003A363B363C363D3650AE0FEF17F011EFED
:102E1C0017F012EF17F03A80D8904D364E364F36E9
:102E2C0050363E50465C3F504758405048584150F1
:102E3C004958D8A024EF17F026EF17F02FEF17F012
:102E4C00508C3E50465E3F50475A4050485A415075
:102E5C00495A522A190E526436EF17F038EF17F010
:102E6C00F8EF16F04650471048104910D8B441EF0F
:102E7C0017F043EF17F05BEF17F04D805BEF17F097
:102E8C00D8903A363B363C363D3650AE50EF17F0C4
:102E9C0052EF17F053EF17F03A80D8904D364E366C
:102EAC004F3650364B06D8A04C063CAE60EF17F0B0
:102EBC0062EF17F046EF17F0000E526E50AE69EF4E
:102ECC0017F06BEF17F08FEF17F0FF0E4D14426EEB
:102EDC00FF0E4E14436EFF0E4F14446E7F0E5014B3
:102EEC00456E4250431044104510D8B480EF17F093
:102EFC0082EF17F086EF17F0010E526E8FEF17F07E
:102F0C003AA08BEF17F08DEF17F08FEF17F082EFE1
:102F1C0017F05250D8B495EF17F097EF17F0BBEFAE
:102F2C0017F0010E3A26000E3B223C223D223DA01A
:102F3C00A2EF17F0A4EF17F0BBEF17F03AC042F076
:102F4C003BC043F03CC044F03DC045F045344532F5
:102F5C0044324332423242C03AF043C03BF044C0A8
:102F6C003CF045C03DF04B4A4C2A4CBEC6EF17F026
:102F7C004C5008E14B28D8A0C6EF17F0C8EF17F05B
:102F8C00D3EF17F0000E4C6E4B68000E3A6E000E2D
:102F9C003B6E000E3C6E000E3D6E4CBEE0EF17F02B
:102FAC004C5006E14B04D8B0DEEF17F0E0EF17F011
:102FBC00EEEF17F0000E4C6E000E4B6E000E3A6EDC
:102FCC00000E3B6E000E3C6E000E3D6E000E4A6E07
:102FDC004BC051F051A0F5EF17F0F7EF17F0FAEFE7
:102FEC0017F03C8EFBEF17F03C9ED89051303D6EA5
:102FFC00B1EF16F01200466E6D0E466408EF18F035
:10300C000AEF18F0B7EF18F0000E256E000E266EC2
:10301C00000E276E3F0E286E000E0F6E640E0E6EA5
:10302C0046C00CF00D6ADBEC29F0D8900C360D364E
:10303C00D8900C360D36480E0C26000E0D22350E8F
:10304C000C24F66E060E0D20F76E0900F5CF21F05C
:10305C000900F5CF22F00900F5CF23F00A00F5CFD7
:10306C0024F019EC12F021C042F022C043F023C02E
:10307C0044F024C045F0000E0F6E0A0E0E6E000ECA
:10308C00096E640E086E46C006F0076A81EC2AF0E1
:10309C0006C00CF007C00DF0DBEC29F0D8900C3614
:1030AC000D36D8900C360D36240E0C26000E0D2243
:1030BC00350E0C24F66E060E0D20F76E0900F5CFBA
:1030CC0025F00900F5CF26F00900F5CF27F00A000E
:1030DC00F5CF28F042C021F043C022F044C023F0C9
:1030EC0045C024F019EC12F021C03EF022C03FF094
:1030FC0023C040F024C041F03EC021F03FC022F07C
:10310C0040C023F041C024F0000E096E0A0E086E78
:10311C0046C006F0076A81EC2AF0D89006360736CE
:10312C00D89006360736350E0624F66E060E0720A6
:10313C00F76E0900F5CF25F00900F5CF26F0090050
:10314C00F5CF27F00A00F5CF28F019EC12F021C0CA
:10315C003AF022C03BF023C03CF024C03DF051EFCC
:10316C0019F00A0E4664BDEF18F0BFEF18F02BEF04
:10317C0019F0000E256E000E266E000E276E3F0E07
:10318C00286E000E0F6E0A0E0E6E46C00CF00D6A05
:10319C00DBEC29F0D8900C360D36D8900C360D3669
:1031AC00240E0C26000E0D22350E0C24F66E060E87
:1031BC000D20F76E0900F5CF21F00900F5CF22F0B4
:1031CC000900F5CF23F00A00F5CF24F019EC12F02A
:1031DC0021C042F022C043F023C044F024C045F08B
:1031EC0042C021F043C022F044C023F045C024F07B
:1031FC00000E096E0A0E086E46C006F0076A81ECD6
:10320C002AF0D89006360736D89006360736350E93
:10321C000624F66E060E0720F76E0900F5CF25F092
:10322C000900F5CF26F00900F5CF27F00A00F5CFFD
:10323C0028F019EC12F021C03AF022C03BF023C068
:10324C003CF024C03DF051EF19F04650040D350E02
:10325C00F324F66E060EF420F76E0900F5CF21F07C
:10326C000900F5CF22F00900F5CF23F00A00F5CFC5
:10327C0024F0000E256E000E266E000E276E3F0EFB
:10328C00286E19EC12F021C03AF022C03BF023C09A
:10329C003CF024C03DF01200000E236E000E226E96
:1032AC00000E1F6E000E1E6E000E216E000E206EA4
:1032BC00000E256E000E246E02C21CF01D6A1C50FE
:1032CC001D6E1C6A020103511C1204C222F0236AF7
:1032DC002250236E226A05512212010E0101006F49
:1032EC00020E016F22C018F023C019F0D8901932C9
:1032FC001832D89019321832D89019321832185016
:10330C00216E2250070B206E2050D8B490EF19F08C
:10331C0092EF19F093EF19F0212A21C002F11CC091
:10332C0024F0030E286E21C026F02650D8A4A1EF5D
:10333C0019F0A3EF19F0A5EF19F021EF1AF0010E17
:10334C002664ABEF19F0ADEF19F0E5EF19F0000EB4
:10335C00276E7D0E2424D96EDA6A020EDA22DF5033
:10336C00D8B4BBEF19F0BDEF19F0C1EF19F0010E95
:10337C00256EC3EF19F0000E256E27C018F025C07E
:10338C0019F0182ACCEF19F0D8901936182ECAEF6C
:10339C0019F0000E2824D96EDA6A010EDA221950BF
:1033AC00DF1A242A272A080E2718D8A4E0EF19F0D0
:1033BC00E2EF19F0AFEF19F0282A1EEF1AF0000E09
:1033CC00276E13EF1AF07D0E2424D96EDA6A020EE2
:1033DC00DA22DF50D8B4F5EF19F0F7EF19F0FBEF64
:1033EC0019F0010E256EFDEF19F0000E256E27C0A9
:1033FC0018F025C019F0182A06EF1AF0D8901936D3
:10340C00182E04EF1AF0000E2824D96EDA6A010E79
:10341C00DA221950DF1A242A272A20502718D8A478
:10342C001AEF1AF01CEF1AF0E9EF19F0E2EF19F0AD
:10343C0026069BEF19F02850020F37EC26F006C039
:10344C001EF007C01FF0000E2824D96EDA6A010E98
:10345C00DA221F50DF6E010E2824D96EDA6A010EB3
:10346C00DA221EC0DFFF8A8E000E266E4EEF1AF097
:10347C00ACA243EF1AF045EF1AF03EEF1AF0000E33
:10348C002624D96EDA6A010EDA22DF50AD6E262AB6
:10349C002650186E196A28501A6E1B6A030E1A26CB
:1034AC00000E1B2218501A1807E119501B18D8A42B
:1034BC0062EF1AF064EF1AF03EEF1AF08A9E0BECF2
:1034CC002BF01200000E236E000E226E000E1F6EEB
:1034DC00000E1E6E000E216E000E206E000E256E6C
:1034EC00000E246E02C21CF01D6A1C501D6E1C6A5C
:1034FC00020103511C1204C222F0236A2250236ED3
:10350C00226A05512212010E0101006F010E016F9A
:10351C0022C018F023C019F0D89019321832D89064
:10352C0019321832D890193218321850216E225094
:10353C00070B206E2050D8B4A6EF1AF0A8EF1AF0A3
:10354C00A9EF1AF0212A21C002F11CC024F0030EAD
:10355C00286E21C026F02650D8A4B7EF1AF0B9EF88
:10356C001AF0BBEF1AF037EF1BF0010E2664C1EF17
:10357C001AF0C3EF1AF0FBEF1AF0000E276E7D0E57
:10358C002424D96EDA6A020EDA22DF50D8B4D1EFD5
:10359C001AF0D3EF1AF0D7EF1AF0010E256ED9EF0F
:1035AC001AF0000E256E27C018F025C019F0182A45
:1035BC00E2EF1AF0D8901936182EE0EF1AF0000E40
:1035CC002824D96EDA6A010EDA221950DF1A242A5D
:1035DC00272A080E2718D8A4F6EF1AF0F8EF1AF0DD
:1035EC00C5EF1AF0282A34EF1BF0000E276E29EFD6
:1035FC001BF07D0E2424D96EDA6A020EDA22DF501B
:10360C00D8B40BEF1BF00DEF1BF011EF1BF0010EFC
:10361C00256E13EF1BF0000E256E27C018F025C089
:10362C0019F0182A1CEF1BF0D8901936182E1AEF27
:10363C001BF0000E2824D96EDA6A010EDA2219501A
:10364C00DF1A242A272A20502718D8A430EF1BF081
:10365C0032EF1BF0FFEF1AF0F8EF1AF02606B1EF7D
:10366C001AF02850020F37EC26F006C01EF007C0E7
:10367C001FF0000E2824D96EDA6A010EDA221F50D0
:10368C00DF6E010E2824D96EDA6A010EDA221EC012
:10369C00DFFF8A8E000E266E64EF1BF0ACA259EF92
:1036AC001BF05BEF1BF054EF1BF0000E2624D96EC1
:1036BC00DA6A010EDA22DF50AD6E262A2650186E19
:1036CC00196A28501A6E1B6A030E1A26000E1B224A
:1036DC0018501A1807E119501B18D8A478EF1BF0D2
:1036EC007AEF1BF054EF1BF08A9E0BEC2BF01200C0
:1036FC00000E1F6E000E1E6E030E226E000E1B6E51
:10370C00000E1A6E000E216E000E206E02C21CF00E
:10371C001D6A1C501D6E1C6A020103511C1204C24E
:10372C001EF01F6A1E501F6E1E6A05511E12010EDE
:10373C000101006F030E016F1E501E24026F1CC08E
:10374C0020F01DC021F009EF1CF0D8902034D96E68
:10375C002134DA6E7D0ED926010EDA22000EDE5CE3
:10376C00010EDE58D8A0BDEF1BF0BFEF1BF0ECEF45
:10377C001BF0000E2224D96EDA6A010EDA22D890E0
:10378C002034E16E2134E26E7D0EE126010EE22240
:10379C00E6CF18F0E5CF19F019C018F0196A1850D7
:1037AC00DF6E222AD8902034D96E2134DA6E7D0E49
:1037BC00D926010EDA22000E2224E16EE26A010EF5
:1037CC00E222DFCFE7FF222A07EF1CF0000E2224B3
:1037DC00D96EDA6A010EDA22000EDF6E222AD89038
:1037EC002034D96E2134DA6E7D0ED926010EDA2200
:1037FC00000E2224E16EE26A010EE222DFCFE7FF27
:10380C00222A204A212A1E501C24186E1F501D20CB
:10381C00196E1850205C19502158D8A018EF1CF0C4
:10382C001AEF1CF0ABEF1BF02250020F37EC26F016
:10383C0006C01AF007C01BF0000E2224D96EDA6AFB
:10384C00010EDA221B50DF6E222A000E2224D96EC2
:10385C00DA6A010EDA221AC0DFFF020E22268A8EE5
:10386C00000E216E000E206E4DEF1CF0ACA241EF4D
:10387C001CF043EF1CF03CEF1CF0000E2024D96E22
:10388C00010E2120DA6EDF50AD6E204A212A225023
:10389C00186E196A2050181807E121501918D8A46D
:1038AC005AEF1CF05CEF1CF03CEF1CF08A9E0BEC0A
:1038BC002BF01200000E1F6E000E1E6E030E226EF9
:1038CC00000E1B6E000E1A6E000E216E000E206E86
:1038DC0002C21CF01D6A1C501D6E1C6A02010351B1
:1038EC001C1204C21EF01F6A1E501F6E1E6A055168
:1038FC001E12010E0101006F040E016F1E501E24DA
:10390C00026F1CC020F01DC021F0EBEF1CF0D89012
:10391C002034D96E2134DA6E7D0ED926010EDA22CE
:10392C00000EDE5C010EDE58D8A09FEF1CF0A1EF5C
:10393C001CF0CEEF1CF0000E2224D96EDA6A010EB8
:10394C00DA22D8902034E16E2134E26E7D0EE1262D
:10395C00010EE222E6CF18F0E5CF19F019C018F0ED
:10396C00196A1850DF6E222AD8902034D96E21346F
:10397C00DA6E7D0ED926010EDA22000E2224E16EBB
:10398C00E26A010EE222DFCFE7FF222AE9EF1CF008
:10399C00000E2224D96EDA6A010EDA22000EDF6ED6
:1039AC00222AD8902034D96E2134DA6E7D0ED92695
:1039BC00010EDA22000E2224E16EE26A010EE222EE
:1039CC00DFCFE7FF222A204A212A1E501C24186E22
:1039DC001F501D20196E1850205C19502158D8A06A
:1039EC00FAEF1CF0FCEF1CF08DEF1CF02250020FD4
:1039FC0037EC26F006C01AF007C01BF0000E22248C
:103A0C00D96EDA6A010EDA221B50DF6E222A000E02
:103A1C002224D96EDA6A010EDA221AC0DFFF020EF6
:103A2C0022268A8E000E216E000E206E2FEF1DF0C6
:103A3C00ACA223EF1DF025EF1DF01EEF1DF0000EC4
:103A4C002024D96E010E2120DA6EDF50AD6E204A93
:103A5C00212A2250186E196A2050181807E121509B
:103A6C001918D8A43CEF1DF03EEF1DF01EEF1DF011
:103A7C008A9E0BEC2BF012001B6E1B50D8B449EF36
:103A8C001DF04BEF1DF06DEF1DF016BE52EF1DF04B
:103A9C0050EF1DF06DEF1DF013C017F014C018F0AF
:103AAC0015C019F016C01AF0171E181E191E1A1E72
:103ABC00172A000E182219221A2217C01DF018C03E
:103ACC001EF019C01FF01AC020F075EF1DF013C0C6
:103ADC001DF014C01EF015C01FF016C020F01350BE
:103AEC00141015101610D8A47EEF1DF080EF1DF0E9
:103AFC008AEF1DF0000E136E000E146E000E156E84
:103B0C00000E166E1BEF1EF0960E1C6E94EF1DF041
:103B1C001C2AD89020321F321E321D32000E1D146A
:103B2C00176E000E1E14186E000E1F14196EFE0E6A
:103B3C0020141A6E1750181019101A10D8A4A9EFC7
:103B4C001DF0ABEF1DF08EEF1DF0B9EF1DF01C2A30
:103B5C00010E1D26000E1E221F222022D89020327C
:103B6C001F321E321D32000E1D14176E000E1E1455
:103B7C00186E000E1F14196EFF0E20141A6E1750BB
:103B8C00181019101A10D8A4CEEF1DF0D0EF1DF09C
:103B9C00ADEF1DF0D8EF1DF01C06D8901D361E366B
:103BAC001F3620361FBEDDEF1DF0DFEF1DF0E7EFF7
:103BBC001DF0020E1C60E5EF1DF0E7EF1DF0D2EFDB
:103BCC001DF01CB0ECEF1DF0EEEF1DF0EFEF1DF053
:103BDC001F9ED8901C321CC017F0186A196A1A6AFA
:103BEC0017C01AF0196A186A176A17501D12185064
:103BFC001E1219501F121A5020121B50D8B409EF64
:103C0C001EF00BEF1EF013EF1EF016BE12EF1EF09F
:103C1C0010EF1EF013EF1EF0208E1DC013F01EC00F
:103C2C0014F01FC015F020C016F012000600D9CFFA
:103C3C0004F0DACF05F0F2A226EF1EF028EF1EF00A
:103C4C003AEF1EF0F292010E6CEC21F00001AA5139
:103C5C00AB11D8B434EF1EF037EF1EF0010E38EF75
:103C6C001EF0000EAA6FAB6BF0A03FEF1EF041EF01
:103C7C001EF054EF1EF0F0900001D6BF4FEF1EF077
:103C8C00D65109E1020ED55DD8A04FEF1EF051EFD1
:103C9C001EF054EF1EF0D507D8A0D607F0A259EFAE
:103CAC001EF05BEF1EF05FEF1EF0F0920001D54BA3
:103CBC00D62B9EAA64EF1EF066EF1EF0AFEF1EF03F
:103CCC007550D8A46CEF1EF06EEF1EF088EF1EF04E
:103CDC007650D8A474EF1EF076EF1EF088EF1EF02D
:103CEC009EA87BEF1EF07DEF1EF088EF1EF0000EFD
:103CFC007124D96EDA6A020EDA22AECFDFFF712A96
:103D0C00000E746E7650D8B48EEF1EF090EF1EF04D
:103D1C00AEEF1EF04CEC2BF09EA897EF1EF099EF37
:103D2C001EF0AEEF1EF0000E7124D96EDA6A020E90
:103D3C00DA22AECFDFFF712A000E766E000E756EA2
:103D4C00000E736E000E726E000E746EE5EF1EF0B8
:103D5C009E9AF2A4B4EF1EF0B6EF1EF0E5EF1EF043
:103D6C0069EC2BF0742A040E7464BFEF1EF0C1EFE3
:103D7C001EF0E4EF1EF0010E756E010E766E71C032
:103D8C0073F0010E726E73C071F0D6EF1EF0000E60
:103D9C007124D96EDA6A020EDA22000EDF6E712AF5
:103DAC007D0E7118D8A4DDEF1EF0DFEF1EF0CDEF05
:103DBC001EF0000E716ED59E000E746EF29405C04E
:103DCC00DAFF04C0D9FF7792110008C00EF00F6A19
:103DDC00106A07340E3601E30F800E50166E165023
:103DEC00D8A4FBEF1EF0FDEF1EF007EF1FF0000E46
:103DFC00066E000E076E000E086E000E096E95EF33
:103E0C001FF00CC00EF00F6A106A0B340E3601E373
:103E1C000F800E50156E1550D8A417EF1FF019EF28
:103E2C001FF01BEF1FF0FDEF1EF0078EFF0E0616A6
:103E3C00FF0E0716000E08160B8EFF0E0A16FF0E4D
:103E4C000B16000E0C16000E116E000E126E000EEC
:103E5C00136E000E146E7F0E165E1550980F165EC4
:103E6C00180E156ED89011361236133614360A50B9
:103E7C00065C0B5007580C500858D8A048EF1FF0A0
:103E8C004AEF1FF051EF1FF00A50065E0B50075A15
:103E9C000C50085A1180D890063607360836152E65
:103EAC0038EF1FF016BE5FEF1FF05DEF1FF075EFE0
:103EBC001FF01650800A970FD8B067EF1FF069EF0C
:103ECC001FF06BEF1FF0FDEF1EF0D8901432133281
:103EDC0012321132163E6BEF1FF08DEF1FF0170EE2
:103EEC0016647BEF1FF07DEF1FF085EF1FF0FDEFE9
:103EFC001EF0D8901136123613361436160616509C
:103F0C00D8A48BEF1FF08DEF1FF07FEF1FF011C0C7
:103F1C0006F012C007F013C008F014C009F012002C
:103F2C0008340934136E1350D8A49FEF1FF0A1EF7F
:103F3C001FF0ABEF1FF0000E066E000E076E000EAA
:103F4C00086E000E096E3BEF20F00C340D34126E2F
:103F5C001250D8A4B4EF1FF0B6EF1FF0B8EF1FF05B
:103F6C00A1EF1FF0088EFF0E0616FF0E0716FF0EB0
:103F7C000816000E09160C8EFF0E0A16FF0E0B16F5
:103F8C00FF0E0C16000E0D16000E0E6E000E0F6EB0
:103F9C00000E106E000E116E7F0E135E1250A00FED
:103FAC00135E200E126ED8900E360F361036113668
:103FBC000A50065C0B5007580C5008580D50095805
:103FCC00D8A0EBEF1FF0EDEF1FF0F6EF1FF00A504B
:103FDC00065E0B50075A0C50085A0D50095A0E80A9
:103FEC00D8900636073608360936122ED9EF1FF050
:103FFC0013BE05EF20F003EF20F01BEF20F0135061
:10400C00800A9F0FD8B00DEF20F00FEF20F011EFCA
:10401C0020F0A1EF1FF0D890113210320F320E3277
:10402C00133E11EF20F033EF20F01F0E136421EF3D
:10403C0020F023EF20F02BEF20F0A1EF1FF0D89011
:10404C000E360F361036113613061350D8A431EF36
:10405C0020F033EF20F025EF20F00EC006F00FC05B
:10406C0007F010C008F011C009F01200086E84921D
:10407C008484066A08AE01D0062A010E06160632A2
:10408C000632835006187F0B0618836E08C006F0A4
:10409C00060E076ED8900632072E50EF20F0010E58
:1040AC000616063A0646064683500618BF0B061837
:1040BC00836E08C006F0050E076ED8900632072EE8
:1040CC0063EF20F0010E0616063A064683500618DA
:1040DC00DF0B0618836E08C006F0063A0F0E0616A4
:1040EC00010E0616063A83500618EF0B0618836E5F
:1040FC00030EE82EFED700F08482030EE82EFED7C6
:10410C0000F0849208C006F0D8900632D89006329F
:10411C00D8900632010E0616063206328350061867
:10412C007F0B0618836E08C006F0D8900632D89024
:10413C000632010E0616063A064606468350061847
:10414C00BF0B0618836E08C006F0D8900632010E1D
:10415C000616063A064683500618DF0B0618836EC1
:10416C0008C006F0010E0616063A83500618EF0B2F
:10417C000618836E030EE82EFED700F08482030E21
:10418C00E82EFED700F08492030EE82EFED700F046
:10419C000F0E066E480EE82EFED7062EFCD7120028
:1041AC00086E84928494066A08AE01D0062A010E29
:1041BC00061606320632835006187F0B0618836EDD
:1041CC0008C006F0060E076ED8900632072EEAEFEE
:1041DC0020F0010E0616063A0646064683500618CF
:1041EC00BF0B0618836E08C006F0050E076ED8903C
:1041FC000632072EFDEF20F0010E0616063A064693
:10420C0083500618DF0B0618836E08C006F0063ABA
:10421C000F0E0616010E0616063A83500618EF0B03
:10422C000618836E030EE82EFED700F08482030E70
:10423C00E82EFED700F0849208C006F0D890063223
:10424C00D8900632D8900632010E06160632063287
:10425C00835006187F0B0618836E08C006F0D890A2
:10426C000632D8900632010E0616063A0646064667
:10427C0083500618BF0B0618836E08C006F0D89042
:10428C000632010E0616063A064683500618DF0B58
:10429C000618836E08C006F0010E0616063A835007
:1042AC000618EF0B0618836E030EE82EFED700F0EF
:1042BC008482030EE82EFED700F084920F0E066E59
:1042CC00480EE82EFED7062EFCD71200036E849201
:1042DC008494016A03AE01D0012A010E0116013249
:1042EC000132835001187F0B0118836E03C001F05B
:1042FC00060E026ED8900132022E80EF21F0010ED4
:10430C000116013A0146014683500118BF0B0118F2
:10431C00836E03C001F0050E026ED8900132022E9E
:10432C0093EF21F0010E0116013A0146835001185A
:10433C00DF0B0118836E03C001F0013A0F0E01165A
:10434C00010E0116013A83500118EF0B0118836E10
:10435C00030EE82EFED700F08482030EE82EFED763
:10436C0000F0849203C001F0D8900132D890013251
:10437C00D8900132010E011601320132835001181E
:10438C007F0B0118836E03C001F0D8900132D890D6
:10439C000132010E0116013A014601468350011803
:1043AC00BF0B0118836E03C001F0D8900132010ECF
:1043BC000116013A014683500118DF0B0118836E78
:1043CC0003C001F0010E0116013A83500118EF0BE6
:1043DC000118836E030EE82EFED700F08482030EC4
:1043EC00E82EFED700F084920F0E016E480EE82ED8
:1043FC00FED7012EFCD7120011681268000E0E6E4B
:10440C00000E0D6E000E106E000E0F6E000E146E70
:10441C00000E136E41EF22F0000E1324D96E020E23
:10442C001420DA6EDF50066E0650111A000E106E54
:10443C00080E0F6E11A025EF22F027EF22F030EFBF
:10444C0022F0D89012321132010E111AA00E121A4B
:10445C0033EF22F0D890123211320F06D8A010068A
:10446C000F501010D8A43DEF22F03FEF22F020EFB8
:10447C0022F0134A142AFE0E066EFF0E076E7350BE
:10448C00086E096A06500826075009220850135C6A
:10449C001450800A0A6E0950800A0A58D8A059EFA5
:1044AC0022F05BEF22F012EF22F011500B6E0C6A2F
:1044BC0011C006F012C007F007C006F0076A0650DC
:1044CC000D6E0E6A000E1324D96E020E1420DA6ED5
:1044DC00DF50066E076A0B50061807E10C500718E0
:1044EC00D8A47BEF22F07DEF22F095EF22F0010EA5
:1044FC001324D96E020E1420DA6EDF50066E076A92
:10450C000D50061807E10E500718D8A490EF22F0B2
:10451C0092EF22F095EF22F0010E96EF22F0000EB2
:10452C001200000E1B6E000E1A6E000E256E000E91
:10453C00246E000E216E000E206E000E1D6E000EFD
:10454C001C6E000E1F6E000E1E6E000E276E000EEF
:10455C00266E000E236E000E226E02C224F0256A17
:10456C002450256E246A02010351241203C218F050
:10457C00196A02C21AF01B6A04C220F0216A205088
:10458C00216E206A0551201205C21CF01D6A04C25E
:10459C001EF01F6A20502110D8B4D7EF22F0D9EFAB
:1045AC0022F0E3EF22F07D0E2424D96E020E25209A
:1045BC00DA6EFF0EDF6EEBEF22F07D0E2424D96E47
:1045CC00020E2520DA6E000EDF6E010E0101006F67
:1045DC00050E016F18C003F11AC002F11EC004F1E0
:1045EC001CC005F1080E37EC26F006C022F007C0FF
:1045FC0023F023500101066F22C007F18A8E000EB2
:10460C00276E000E266EACA20EEF23F010EF23F0F7
:10461C0009EF23F0000E2624D96E010E2720DA6E46
:10462C00DF50AD6E264A272A090E26182710D8A46B
:10463C0022EF23F024EF23F009EF23F08A9E0BECFA
:10464C002BF01200959E959C959A9598969496921F
:10465C00839E839C839A8398849284940F0E096E14
:10466C00480EE82EFED7092EFCD70F0E096E480E09
:10467C00E82EFED7092EFCD70F0E096E480EE82E39
:10468C00FED7092EFCD70F0E096E480EE82EFED76A
:10469C00092EFCD70F0E096E480EE82EFED7092EF8
:1046AC00FCD70F0E096E480EE82EFED7092EFCD74C
:1046BC00010E0A6E839E839C838A838884928494E1
:1046CC00839E839C838A838884828494030EE82E41
:1046DC00FED700F0839E839C838A83888492849483
:1046EC000F0E096E480EE82EFED7092EFCD70A2AAB
:1046FC00030E0A6484EF23F086EF23F060EF23F0BF
:10470C00839E839C838A839884928494839E839CC7
:10471C00838A839884828494030EE82EFED700F05B
:10472C00839E839C838A8398849284940F0E096E53
:10473C00480EE82EFED7092EFCD7280ED6EC20F01A
:10474C00100ED6EC20F0010ED6EC20F00F0ED6ECAD
:10475C0020F01200000E0F6E0DBEB9EF23F0B7EF74
:10476C0023F0C3EF23F00D1E0C1E0B1E0A6C000E63
:10477C000B220C220D22010E0F6E09BECAEF23F084
:10478C00C8EF23F0D4EF23F0091E081E071E066C99
:10479C00000E072208220922010E0F1A000E106EBD
:1047AC00000E116E000E126E000E136E0A500B10DE
:1047BC000C100D10D8B4E5EF23F0E7EF23F01DEF4C
:1047CC0024F0010E0E6EF1EF23F0D8900A360B3662
:1047DC000C360D360E2A0DAEF6EF23F0F8EF23F063
:1047EC00EBEF23F0D89010361136123613360A50F0
:1047FC00065C0B5007580C5008580D500958D8A09F
:10480C000AEF24F00CEF24F015EF24F00A50065EAA
:10481C000B50075A0C50085A0D50095A1080D8905A
:10482C000D320C320B320A320E2EF8EF23F00F50F1
:10483C00D8B423EF24F025EF24F02DEF24F0131E31
:10484C00121E111E106C000E11221222132210C007
:10485C0006F011C007F012C008F013C009F01200E6
:10486C00553456345C6E5C50D8A43FEF24F041EFC5
:10487C0024F04BEF24F0000E536E000E546E000E1D
:10488C00556E000E566EB8EF24F053C057F054C05E
:10489C0058F055C059F056C05AF0200E5BEF24F07A
:1048AC00D8905A32593258325732E82E56EF24F0FB
:1048BC0057505B6E558EFF0E5316FF0E5416FF0E9F
:1048CC005516000E5616960E5C5E5CBE72EF24F00A
:1048DC0070EF24F088EF24F05C50800A970FD8B06A
:1048EC007AEF24F07CEF24F07EEF24F041EF24F0FB
:1048FC00D89056325532543253325C3E7EEF24F00F
:10490C00A0EF24F01F0E5C648EEF24F090EF24F0E7
:10491C0098EF24F041EF24F0D890533654365536A6
:10492C0056365C065C50D8A49EEF24F0A0EF24F021
:10493C0092EF24F05B50D8B4A6EF24F0A8EF24F04B
:10494C00B0EF24F0561E551E541E536C000E54220C
:10495C005522562253C053F054C054F055C055F054
:10496C0056C056F01200000E1B6E000E1A6E000E92
:10497C00216E000E206E000E236E000E226E000EB5
:10498C001D6E000E1C6E000E1F6E000E1E6E000EB5
:10499C00256E000E246E000E276E000E266E02C2CF
:1049AC0020F0216A2050216E206A0201035120124E
:1049BC0003C218F0196A02C21AF01B6A04C222F070
:1049CC00236A2250236E226A0551221205C21CF062
:1049DC001D6A04C21EF01F6AD8902034D96E21348F
:1049EC00DA6E7D0ED926010EDA2222C0DEFF23C03C
:1049FC00DDFF010E0101006F060E016F18C003F1FF
:104A0C001AC002F11EC004F11CC005F1080E37ECEF
:104A1C0026F006C024F007C025F025500101066FD2
:104A2C0024C007F18A8E000E276E000E266EACA2F3
:104A3C0022EF25F024EF25F01DEF25F0000E2624A3
:104A4C00D96E010E2720DA6EDF50AD6E264A272A6A
:104A5C00090E26182710D8A436EF25F038EF25F0CC
:104A6C001DEF25F08A9E0BEC2BF01200000E21148A
:104A7C00296E000E22142A6E800E23142B6E7F0ECC
:104A8C0024142C6E29502A102B102C10D8A451EF62
:104A9C0025F053EF25F05BEF25F0000E216E000E94
:104AAC00226E000E236E000E246E000E2514296E4D
:104ABC00000E26142A6E800E27142B6E7F0E2814DF
:104ACC002C6E29502A102B102C10D8A470EF25F026
:104ADC0072EF25F07AEF25F0000E256E000E266E93
:104AEC00000E276E000E286E24AE7FEF25F081EFAE
:104AFC0025F08AEF25F0216C221ED8B0222A231E25
:104B0C00D8B0232A800E245628AE8FEF25F091EFD3
:104B1C0025F09AEF25F0256C261ED8B0262A271EE4
:104B2C00D8B0272A800E2856000E211A000E221A01
:104B3C00000E231A800E241A000E251A000E261AB7
:104B4C00000E271A800E281A2550215C2650225858
:104B5C002750235828502458D8B0B7EF25F0B9EF78
:104B6C0025F0BCEF25F0D890BDEF25F0D8801200D1
:104B7C00000EBD6E9484958A8294839A000EBE6E4C
:104B8C00CA94000E066E120E076E7A0E086E000E98
:104B9C00096E1450166E1550176E186A196A020EAB
:104BAC00D8901636173618361936E82ED6EF25F06B
:104BBC0016C00AF017C00BF018C00CF019C00DF09D
:104BCC00B0EC23F006C01AF007C01BF01B04D8B0E1
:104BDC00F2EF25F0F4EF25F0FAEF25F0FC0ECA16F3
:104BEC001AC0CBFF34EF26F01AC016F01BC017F01A
:104BFC00D89017321632D890173216321704D8B014
:104C0C000AEF26F00CEF26F020EF26F0CA50FC0B32
:104C1C000109CA6E020E1A24166E000E1B20176EA6
:104C2C00D89017321632D890173216321650CB6EE7
:104C3C0034EF26F0080E1A24166E000E1B20176E89
:104C4C00040E186ED89017321632182E28EF26F054
:104C5C001650CB6ECA50FC0B0209CA6E870ECA16D0
:104C6C0012000D6E16681768000E0F6E000E0E6E99
:104C7C00000E156E000E146E000E136E000E126EEA
:104C8C0077EF26F0000E1224D96E010E1320DA6E87
:104C9C00DF50086E0850161A000E156E080E146EB2
:104CAC0016A05BEF26F05DEF26F066EF26F0D890AD
:104CBC0017321632010E161AA00E171A69EF26F0CB
:104CCC00D890173216321406D8A0150614501510A9
:104CDC00D8A473EF26F075EF26F056EF26F0124AA3
:104CEC00132AFE0E086EFF0E096E0D500A6E0B6A2B
:104CFC0008500A2609500B220A50125C1350800AE5
:104D0C000C6E0B50800A0C58D8A08FEF26F091EF48
:104D1C0026F048EF26F01650096E086A08C010F00D
:104D2C0009C011F016C008F017C009F009C008F04E
:104D3C00096A08500E6E0F6A0E5010120F501112A5
:104D4C0010C016F011C017F016C006F017C007F00F
:104D5C00120002010005D8A4B6EF26F0B8EF26F039
:104D6C0013EF27F002EC22F00009D8B4C0EF26F0C4
:104D7C00C2EF26F013EF27F002010105D8A4C9EF0A
:104D8C0026F0CBEF26F0CFEF26F068EC1AF013EFFD
:104D9C0027F0020E0119D8A4D6EF26F0D8EF26F092
:104DAC00DCEF26F052EC19F013EF27F0030E01198B
:104DBC00D8A4E3EF26F0E5EF26F0E9EF26F07EEC41
:104DCC001BF013EF27F0040E0119D8A4F0EF26F016
:104DDC00F2EF26F0F6EF26F060EC1CF013EF27F064
:104DEC00050E0119D8A4FDEF26F0FFEF26F003EF16
:104DFC0027F097EC22F013EF27F0060E0119D8A438
:104E0C000AEF27F00CEF27F010EF27F0B9EC24F0A5
:104E1C0013EF27F0000E0101006F000E726E1200EE
:104E2C00000E116E0FBE1FEF27F01DEF27F025EFC0
:104E3C0027F00E6C0F1ED8B00F2A010E116E0DBE8E
:104E4C002CEF27F02AEF27F032EF27F00C6C0D1E19
:104E5C00D8B00D2A010E111A000E136E000E126E30
:104E6C000E500F10D8B43DEF27F03FEF27F067EF4F
:104E7C0027F0010E106E47EF27F0D8900E360F3644
:104E8C00102A0FAE4CEF27F04EEF27F043EF27F030
:104E9C00D890123613360E500C5C0F500D58D8A00B
:104EAC005AEF27F05CEF27F061EF27F00E500C5E05
:104EBC000F500D5A1280D8900F320E32102E4EEF2A
:104ECC0027F01150D8B46DEF27F06FEF27F073EF88
:104EDC0027F0126C131ED8B0132A12C00CF013C09A
:104EEC000DF012000C6E8FEF27F00950800F0D6E35
:104EFC00A2EF27F00950C00F0D6EA2EF27F009505A
:104F0C00940F0D6EA2EF27F00950D40F0D6EA2EF87
:104F1C0027F00C50010AD8B47BEF27F0030AD8B461
:104F2C0080EF27F0010AD8B485EF27F0070AD8B430
:104F3C008AEF27F0A2EF27F00D50D6EC20F0BBEF54
:104F4C0027F00AC0F6FF0BC0F7FFF86A050EF764EE
:104F5C0003D00800F55005D0F6CFE1FFF7CFE2FF04
:104F6C00E7503CEC20F00A4A0B2A0AC0F6FF0BC0B3
:104F7C00F7FFF86A050EF76403D00800F55005D06A
:104F8C00F6CFE1FFF7CFE2FFE7500009D8A4D1EF4D
:104F9C0027F0D3EF27F0A7EF27F01200000E0B6ECF
:104FAC0007BEDDEF27F0DBEF27F0E3EF27F0066C11
:104FBC00071ED8B0072A010E0B6E09BEEAEF27F0C8
:104FCC00E8EF27F0EEEF27F0086C091ED8B0092A9D
:104FDC0008500910D8B4F5EF27F0F7EF27F01BEFC6
:104FEC0028F0010E0A6EFFEF27F0D890083609362C
:104FFC000A2A09AE04EF28F006EF28F0FBEF27F0A1
:10500C000850065C09500758D8A00FEF28F011EF94
:10501C0028F015EF28F00850065E0950075AD89072
:10502C00093208320A2E06EF28F00B50D8B421EFC3
:10503C0028F023EF28F027EF28F0066C071ED8B0D5
:10504C00072A06C006F007C007F01200000E06146F
:10505C000E6E000E07140F6E800E0814106E7F0E6D
:10506C000914116E0E500F1010101110D8A441EF2E
:10507C0028F043EF28F04BEF28F0000E066E000EE0
:10508C00076E000E086E000E096E000E0A140E6EEE
:10509C00000E0B140F6E800E0C14106E7F0E0D1480
:1050AC00116E0E500F1010101110D8A460EF28F0D4
:1050BC0062EF28F06AEF28F0000E0A6E000E0B6EFD
:1050CC00000E0C6E000E0D6E0A5006180FE10B5000
:1050DC0007180CE10C50081809E10D500918D8B448
:1050EC007AEF28F07CEF28F07FEF28F0D89080EF53
:1050FC0028F0D8801200000E1A6E000E1B6E000EE7
:10510C001C6E000E1D6E1650171018101910D8B406
:10511C0092EF28F094EF28F0CAEF28F0010E1E6EE3
:10512C009EEF28F0D89016361736183619361E2AE8
:10513C0019AEA3EF28F0A5EF28F098EF28F0D8903F
:10514C001A361B361C361D361650125C1750135867
:10515C001850145819501558D8A0B7EF28F0B9EFBB
:10516C0028F0C2EF28F01650125E1750135A185040
:10517C00145A1950155A1A80D890193218321732FD
:10518C0016321E2EA5EF28F01AC012F01BC013F019
:10519C001CC014F01DC015F01200216E2150066EBB
:1051AC00076A086A096ACB501F6E206AD8901F36AE
:1051BC002036D8901F362036030E1F12000E2012F8
:1051CC001FC00AF020C00BF0000E0BBEFF0E0C6EC1
:1051DC000D6E4CEC2AF006C012F007C013F008C09C
:1051EC0014F009C015F0FF0E166E000E176E000EAF
:1051FC00186E000E196E81EC28F012C022F013C04C
:10520C0023F022C01FF023C020F0D89020321F3290
:10521C00D89020321F321F50BE6E22C01FF0030EDA
:10522C001F161F38F00B0F09BD6E120023502410EF
:10523C0025102610D8B425EF29F027EF29F057EFC9
:10524C0029F0010E276E31EF29F0D8902336243641
:10525C0025362636272A26AE36EF29F038EF29F0E8
:10526C002BEF29F023501F5C245020582550215837
:10527C0026502258D8A045EF29F047EF29F04FEFE0
:10528C0029F023501F5E2450205A2550215A2650B5
:10529C00225AD8902632253224322332272E38EF48
:1052AC0029F01FC01FF020C020F021C021F022C027
:1052BC0022F012000C6E6FEF29F0010EC26E7EEF21
:1052CC0029F0050EC26E7EEF29F0090EC26E7EEF3C
:1052DC0029F00C50000AD8B463EF29F0010AD8B4B5
:1052EC0067EF29F0030AD8B46BEF29F07EEF29F0B1
:1052FC00C282C2B284EF29F086EF29F07FEF29F049
:10530C00C3CF08F0060E096ED8900832092E8AEF2A
:10531C0029F00850C4CF0AF00B6AD8900A360B3625
:10532C00D8900A360B360A10066E0B50076E120018
:10533C00DC0EF66E560EF76E000EF86E00EED5F023
:10534C0010EE08F00900F5CFEEFFE550E150FAE160
:10535C00E40EF66E560EF76E000EF86E0900F5CFE1
:10536C0076F003EE00F0320EEE6AE806FDE102EE96
:10537C0000F0E10EEE6AE806FDE101EE00F0E10E50
:10538C00EE6AE806FDE100EE80F0320EEE6AE80609
:10539C00FDE1756A746A736A726A716A77907792C2
:1053AC00000EF86E000137EF0AF0000E126E000EC0
:1053BC00116E0E500F10D8B4E6EF29F0E8EF29F07B
:1053CC0010EF2AF0010E106EF0EF29F0D8900E3687
:1053DC000F36102A0FAEF5EF29F0F7EF29F0ECEFAE
:1053EC0029F0D890113612360E500C5C0F500D5817
:1053FC00D8A003EF2AF005EF2AF00AEF2AF00E509E
:10540C000C5E0F500D5A1180D8900F320E32102EA8
:10541C00F7EF29F011C00CF012C00DF01200000EC5
:10542C00076E000E086E000E096E000E0A6E110E4D
:10543C00076E040E086E000E096E000E0A6E060E44
:10544C00066ED8900A32093208320732062E27EF40
:10545C002AF00706000E085A095A0A5A58EC2BF083
:10546C00939E8A9E000EAC6E000EAB6E949C948E36
:10547C00AC98AC9CAC96AC94AB88AB9C9D8A9D983C
:10548C00B89607C0AFFFAC8AAB8E1200000E0E6E42
:10549C00000E0F6E000E106E000E116E06A059EF6E
:1054AC002AF05BEF2AF063EF2AF00A500E260B501D
:1054BC000F220C5010220D501122D8900A360B36A8
:1054CC000C360D36D89009320832073206320650A7
:1054DC00071008100910D8A476EF2AF078EF2AF0FC
:1054EC0054EF2AF00EC006F00FC007F010C008F001
:1054FC0011C009F0120008500910D8B488EF2AF036
:10550C008AEF2AF0AEEF2AF0010E0A6E92EF2AF023
:10551C00D890083609360A2A09AE97EF2AF099EF87
:10552C002AF08EEF2AF00850065C09500758D8A0D4
:10553C00A2EF2AF0A4EF2AF0A8EF2AF00850065E9A
:10554C000950075AD890093208320A2E99EF2AF0DE
:10555C0006C006F007C007F01200000E5B1A000E22
:10556C005C1A000E5D1A800E5E1A57C047F058C0C8
:10557C0048F059C049F05AC04AF05BC04BF05CC0CF
:10558C004CF05DC04DF05EC04EF0B9EC0FF047C072
:10559C0057F048C058F049C059F04AC05AF01200B0
:1055AC000650071008100910D8B4DFEF2AF0E1EF0D
:1055BC002AF0E9EF2AF0000E061A000E071A000E68
:1055CC00081A800E091A06C006F007C007F008C0BA
:1055DC0008F009C009F01200086E000E076E3A0EB2
:1055EC000860FBEF2AF0FDEF2AF007EF2BF02F0EEF
:1055FC00086403EF2BF005EF2BF007EF2BF0010EF7
:10560C00076E07C006F006301200000E0B6E000E7F
:10561C000B24D96EDA6A010EDA22000EDF6E0B2A29
:10562C007C0E0B641CEF2BF01EEF2BF00DEF2BF010
:10563C0058EC2BF015EC2AF012009494959A0F0E5E
:10564C00BD6ECA849E929EA22EEF2BF030EF2BF0F3
:10565C0029EF2BF09E929EA236EF2BF038EF2BF019
:10566C0031EF2BF0120006500802F3CF0AF0F4CF02
:10567C000BF006500902F3500B2607500802F350AA
:10568C000B260AC006F00BC007F01200D59ED59C65
:10569C00D59AD586F50ED76ED70ED66ED58EF294DA
:1056AC00F28A12004F0EAB16AC9ACF0E9D1612005A
:1056BC00D09E9E9AF294F28CF28E1200080EC16E5D
:1056CC00410EC26E1200F50ED76ED70ED66E1200BA
:0956DC0028000200100001000189
:020000040020DA
:08000000FFFFFFFFFFFFFFFF00
:020000040030CA
:0E000000FF021F1FFF8185FF0FC00FE00F40A2
:00000001FF
