:020000040000FA
:04000000E7EF3BF0FB
:10778F00280001000600170001080EC16E410EC24D
:10779F006E12009494959A0F0EBD6ECA849E929E9F
:1077AF00A2DCEF3BF0DEEF3BF0D7EF3BF09E929E7B
:1077BF00A2E4EF3BF0E6EF3BF0DFEF3BF012008F80
:1077CF000EF66E770EF76E000EF86E00EE58F01094
:1077DF00EE09F00900F5CFEEFFE550E150FAE102B6
:1077EF00EE00F0960EEE6AE806FDE101EE00F0E124
:1077FF000EEE6AE806FDE100EE80F07D0EEE6AE81F
:10780F0006FDE100EE01F0370EEE6AE806FDE1003D
:10781F000EF86E00015DEF3DF0000E406E000E4160
:10782F006E000E426E000E436E38A021EF3CF02327
:10783F00EF3CF02BEF3CF03C5040263D5041223EB8
:10784F005042223F504322D8903C363D363E363F81
:10785F0036D8903B323A3239323832385039103AC2
:10786F00103B10D8A43EEF3CF040EF3CF01CEF3C37
:10787F00F040C038F041C039F042C03AF043C03B4D
:10788F00F01200536E5350386E396A3A6A3B6ACB26
:10789F0050516E526AD89051365236D89051365256
:1078AF0036030E5112000E521251C03CF052C03D21
:1078BF00F0000E3DBEFF0E3E6E3F6E14EC3CF038F6
:1078CF00C044F039C045F03AC046F03BC047F0FF26
:1078DF000E486E000E496E000E4A6E000E4B6E92F1
:1078EF00EC3CF044C054F045C055F054C051F05535
:1078FF00C052F0D89052325132D890523251325148
:10790F0050BE6E54C051F0030E51165138F00B0F8C
:10791F0009BD6E1200000E4C6E000E4D6E000E4E25
:10792F006E000E4F6E485049104A104B10D8B4A33A
:10793F00EF3CF0A5EF3CF0DBEF3CF0010E506EAFEB
:10794F00EF3CF0D890483649364A364B36502A4BE2
:10795F00AEB4EF3CF0B6EF3CF0A9EF3CF0D8904C52
:10796F00364D364E364F364850445C495045584A8E
:10797F005046584B504758D8A0C8EF3CF0CAEF3C80
:10798F00F0D3EF3CF04850445E4950455A4A5046B8
:10799F005A4B50475A4C80D8904B324A3249324852
:1079AF0032502EB6EF3CF04CC044F04DC045F04E77
:1079BF00C046F04FC047F01200000EBD6E94849584
:1079CF008A8294839A000EBE6ECA94000E386E128D
:1079DF000E396E7A0E3A6E000E3B6E4650486E4769
:1079EF0050496E4A6A4B6A020ED890483649364A59
:1079FF00364B36E82EFCEF3CF048C03CF049C03D1A
:107A0F00F04AC03EF04BC03FF05CEC3EF038C04C4B
:107A1F00F039C04DF04D04D8B018EF3DF01AEF3DDE
:107A2F00F020EF3DF0FC0ECA164CC0CBFF5AEF3DD5
:107A3F00F04CC048F04DC049F0D89049324832D888
:107A4F0090493248324904D8B030EF3DF032EF3D23
:107A5F00F046EF3DF0CA50FC0B0109CA6E020E4C06
:107A6F0024486E000E4D20496ED89049324832D8C6
:107A7F0090493248324850CB6E5AEF3DF0080E4CC9
:107A8F0024486E000E4D20496E040E4A6ED8904960
:107A9F003248324A2E4EEF3DF04850CB6ECA50FC62
:107AAF000B0209CA6E870ECA161200000EF26E0084
:107ABF000EF16EF19E92680F0E936E000E946E0F84
:107ACF000E956E000E966E000E806E000E896E0083
:107ADF000E816E000E8A6E000E826E000E8B6E008F
:107AEF000E836E000E8C6E000E846E000E8D6EF186
:107AFF009CF292F288F086F090F088F092CCEC3BFA
:107B0F00F0E2EC3EF00C0E6AEC3FF0030E476EE82D
:107B1F000E466EE4EC3CF0D1EC3BF0100E576E3B92
:107B2F000E566E990E0400E82EFDD7562EFBD75732
:107B3F002EF9D7040000F00400010E816E828A81B5
:107B4F00B6ACEF3DF0AEEF3DF0B2EF3DF0000E2ED4
:107B5F006E010E2D6E000E1D6E000E1E6E7C0E1F22
:107B6F006E420E206E2D502E10D8A4C1EF3DF0C3E3
:107B7F00EF3DF0D2EF3DF01DC038F01EC039F01FC1
:107B8F00C03AF020C03BF0D9EC3DF0385049EC3C06
:107B9F00F0A3EF3DF07F0E49EC3CF0A3EF3DF0007A
:107BAF00EF00F03A343B34416E4150D8A4E2EF3D40
:107BBF00F0E4EF3DF0EEEF3DF0000E386E000E39C1
:107BCF006E000E3A6E000E3B6E5BEF3EF038C03C1F
:107BDF00F039C03DF03AC03EF03BC03FF0200EFE02
:107BEF00EF3DF0D8903F323E323D323C32E82EF935
:107BFF00EF3DF03C50406E3A8EFF0E3816FF0E39B7
:107C0F0016FF0E3A16000E3B16960E415E41BE153C
:107C1F00EF3EF013EF3EF02BEF3EF04150800A970E
:107C2F000FD8B01DEF3EF01FEF3EF021EF3EF0E416
:107C3F00EF3DF0D8903B323A3239323832413E2163
:107C4F00EF3EF043EF3EF01F0E416431EF3EF03355
:107C5F00EF3EF03BEF3EF0E4EF3DF0D89038363991
:107C6F00363A363B3641064150D8A441EF3EF043F9
:107C7F00EF3EF035EF3EF04050D8B449EF3EF04BB9
:107C8F00EF3EF053EF3EF03B1E3A1E391E386C00AC
:107C9F000E39223A223B2238C038F039C039F03A37
:107CAF00C03AF03BC03BF01200000E416E3FBE6584
:107CBF00EF3EF063EF3EF06FEF3EF03F1E3E1E3D96
:107CCF001E3C6C000E3D223E223F22010E416E3BB8
:107CDF00BE76EF3EF074EF3EF080EF3EF03B1E3A83
:107CEF001E391E386C000E39223A223B22010E41FA
:107CFF001A000E426E000E436E000E446E000E45CB
:107D0F006E3C503D103E103F10D8B491EF3EF093B3
:107D1F00EF3EF0C9EF3EF0010E406E9DEF3EF0D802
:107D2F00903C363D363E363F36402A3FAEA2EF3EC0
:107D3F00F0A4EF3EF097EF3EF0D890423643364432
:107D4F003645363C50385C3D5039583E503A583FD6
:107D5F00503B58D8A0B6EF3EF0B8EF3EF0C1EF3E23
:107D6F00F03C50385E3D50395A3E503A5A3F503BE6
:107D7F005A4280D8903F323E323D323C32402EA4A0
:107D8F00EF3EF04150D8B4CFEF3EF0D1EF3EF0D9F7
:107D9F00EF3EF0451E441E431E426C000E4322442C
:107DAF0022452242C038F043C039F044C03AF04572
:107DBF00C03BF01200959E959C959A959896949637
:107DCF0092839E839C839A8398849284940F0E3B14
:107DDF006E480EE82EFED73B2EFCD70F0E3B6E489B
:107DEF000EE82EFED73B2EFCD70F0E3B6E480EE84B
:107DFF002EFED73B2EFCD70F0E3B6E480EE82EFE05
:107E0F00D73B2EFCD70F0E3B6E480EE82EFED73B0E
:107E1F002EFCD70F0E3B6E480EE82EFED73B2EFCE6
:107E2F00D7010E3C6E839E839C838A8388849284C1
:107E3F0094839E839C838A838884828494030EE830
:107E4F002EFED700F0839E839C838A83888492843E
:107E5F00940F0E3B6E480EE82EFED73B2EFCD73C00
:107E6F002A030E3C643EEF3FF040EF3FF01AEF3F26
:107E7F00F0839E839C838A839884928494839E83C9
:107E8F009C838A839884828494030EE82EFED70005
:107E9F00F0839E839C838A8398849284940F0E3BF5
:107EAF006E480EE82EFED73B2EFCD7280E6AEC3F0D
:107EBF00F0100E6AEC3FF0010E6AEC3FF00F0E6A05
:107ECF00EC3FF012003A6E84928494386A3AAE0115
:107EDF00D0382A010E381638323832835038187F8E
:107EEF000B3818836E3AC038F0060E396ED89038BA
:107EFF0032392E7EEF3FF0010E3816383A384638B9
:107F0F004683503818BF0B3818836E3AC038F005C7
:107F1F000E396ED8903832392E91EF3FF0010E386E
:107F2F0016383A384683503818DF0B3818836E3AB4
:107F3F00C038F0383A0F0E3816010E3816383A831B
:107F4F00503818EF0B3818836E030EE82EFED7004B
:107F5F00F08482030EE82EFED700F084923AC038E8
:107F6F00F0D8903832D8903832D8903832010E3855
:107F7F001638323832835038187F0B3818836E3AE0
:107F8F00C038F0D8903832D8903832010E381638C1
:107F9F003A3846384683503818BF0B3818836E3A34
:107FAF00C038F0D8903832010E3816383A38468338
:107FBF00503818DF0B3818836E3AC038F0010E387E
:107FCF0016383A83503818EF0B3818836E030EE8C3
:107FDF002EFED700F08482030EE82EFED700F08429
:107FEF00920F0E386E480EE82EFED7382EFCD712A1
:017FFF000081
:020000040020DA
:08000000FFFFFFFFFFFFFFFF00
:020000040030CA
:0E000000FF021F1FFF8185FF0FC00FE00F40A2
:00000001FF
